:100000000C9446000C945D000C945D000C945D0013
:100010000C945D000C945D000C945D000C945D00EC
:100020000C945D000C945D000C945D000C945D00DC
:100030000C945D000C945D000C945D000C945D00CC
:100040000C945D000C945D000C945D000C945D00BC
:100050000C945D000C945D000C945D000C945D00AC
:100060000C945D000C945D000C945D000C945D009C
:100070000C945D000C945D000C945D000C945D008C
:100080000C945D000C945D000C945D0011241FBE67
:10009000CFEFD0E4DEBFCDBF11E0A0E0B1E0E4EBF4
:1000A000F1E000E00BBF02C007900D92AE30B10747
:1000B000D9F70E9488000C94D8000C940000CF93CC
:1000C000DF9300D01F92CDB7DEB789837B836A832D
:1000D00089818A3031F48A819B81BC018DE00E9444
:1000E0005F0080EC90E0FC018081882F90E08072BE
:1000F00099270097B1F386EC90E02981FC012083D9
:1001000080E090E00F900F900F90DF91CF910895D5
:10011000CF93DF9300D01F92CDB7DEB784E290E09B
:100120002EEFFC01208385E290E021E0FC0120839A
:100130008AE290E0FC0110828BE290E02FEFFC015C
:1001400020831B821A8219821B821A82198289E2F9
:1001500090E0FC018081882F90E09C01220F331FEA
:1001600083E290E0FC018081882F90E081709927E4
:10017000822B932B9B838A838A819B818634910572
:1001800020F08981826089830DC08A819B818630BD
:10019000910540F08A819B818634910518F489810C
:1001A0008460898385E290E02981FC012083CCCFA3
:0401B000F894FFCFF1
:0E01B40000000002000000005F0000000000DC
:00000001FF
